:100000000C942A000C9434000C9434000C943400AA
:100010000C9434000C9434000C9434000C94340090
:100020000C9434000C9434000C9434000C94340080
:100030000C9434000C9434000C9434000C94340070
:100040000C9434000C9434000C9434000C94340060
:100050000C94340011241FBECFE5D8E0DEBFCDBF25
:100060000E9436000C94A7000C9400008FEF8ABB0E
:10007000FFE3E6E07BE56FE456E64DE63DE727E08B
:100080009FE78FE6FBBBAFE3BDE0C3E0A150B0400C
:10009000C040E1F700C00000EBBBAFE3BDE0C3E050
:1000A000A150B040C040E1F700C000007BBBAFE30F
:1000B000BDE0C3E0A150B040C040E1F700C0000087
:1000C0006BBBAFE3BDE0C3E0A150B040C040E1F77F
:1000D00000C000005BBBAFE3BDE0C3E0A150B04097
:1000E000C040E1F700C000004BBBAFE3BDE0C3E0A0
:1000F000A150B040C040E1F700C000003BBBAFE3FF
:10010000BDE0C3E0A150B040C040E1F700C0000036
:100110002BBBAFE3BDE0C3E0A150B040C040E1F76E
:1001200000C000009BBBAFE3BDE0C3E0A150B04006
:10013000C040E1F700C000008BBBAFE3BDE0C3E00F
:10014000A150B040C040E1F700C000009BCFF89440
:02015000FFCFDF
:00000001FF
