S01700004763634170706C69636174696F6E322E737265635A
S11300000C942A000C9434000C9434000C943400A6
S11300100C9434000C9434000C9434000C9434008C
S11300200C9434000C9434000C9434000C9434007C
S11300300C9434000C9434000C9434000C9434006C
S11300400C9434000C9434000C9434000C9434005C
S11300500C94340011241FBECFE5D8E0DEBFCDBF21
S11300600E9436000C944D000C94000081E08ABB81
S11300708BBB2FE73AE196E0215030409040E1F706
S113008000C000001BBA2FE73AE196E0215030404F
S11100909040E1F700C00000EBCFF894FFCFE2
S9030000FC
