S01700004763634170706C69636174696F6E312E737265635B
S11300000C942A000C9434000C9434000C943400A6
S11300100C9434000C9434000C9434000C9434008C
S11300200C9434000C9434000C9434000C9434007C
S11300300C9434000C9434000C9434000C9434006C
S11300400C9434000C9434000C9434000C9434005C
S11300500C94340011241FBECFE5D8E0DEBFCDBF21
S11300600E9436000C9467000C94000087E08ABB61
S113007031E092E024E03BBB4FEB56EC6DE24150A3
S113008050406040E1F700C0000085E09BBB4FE9B1
S113009056E861E0415050406040E1F700C0000084
S11300A01BBA4FE956E861E0415050406040E1F727
S11300B000C00000815051F72BBB8FEB46EC5DE292
S11300C0815040405040E1F700C00000D4CFF89484
S10500D0FFCF5C
S9030000FC
